:02000000C92C09
:06000600000000000800EC
:10000C000F3083120313FC004730FD00FD0B0C284E
:0A001C00FC0B0C2800000000080097
:0E002600213083120313FD00FD0B1728080084
:10003400063083120313FD00FD0B1E280000080088
:1000440083120313FB01FA01F901F801A001730DF6
:10005400F80D7408F8027508031C750FF902760888
:10006400031C760FFA027708031C770FFB020001CA
:10007400031C0130A002F30D0730FC00730DF80DD2
:10008400F90DFA0DFB0DA00D7408731C5B28F80222
:100094007508031C750FF9027608031C760FFA0223
:1000A4007708031C770FFB020001031C0130A00238
:1000B4006C28F80775080318750FF90776080318F4
:1000C400760FFA0777080318770FFB070001031868
:1000D4000130A007F30DFC0B4028720DF80DF90D4B
:1000E400FA0DFB0DA00D7408731C8A28F80275081C
:1000F400031C750FF9027608031C760FFA027708C1
:10010400031C770FFB020001031C0130A0029B2893
:10011400F80775080318750FF90776080318760FA2
:10012400FA0777080318770FFB070001031801305B
:10013400A007F20D0730FC00720DF80DF90DFA0D51
:10014400FB0DA00D7408721CB928F8027508031C75
:10015400750FF9027608031C760FFA027708031C60
:10016400770FFB020001031C0130A002CA28F80724
:1001740075080318750FF90776080318760FFA0740
:1001840077080318770FFB07000103180130A00755
:10019400F20DFC0B9E28710DF80DF90DFA0DFB0DF7
:1001A400A00D7408721CE828F8027508031C750F6A
:1001B400F9027608031C760FFA027708031C770FFE
:1001C400FB020001031C0130A002F928F80775089E
:1001D4000318750FF90776080318760FFA077708DE
:1001E4000318770FFB07000103180130A007F10D76
:1001F4000730FC00710DF80DF90DFA0DFB0DA00D83
:100204007408711C1729F8027508031C750FF9028C
:100214007608031C760FFA027708031C770FFB029B
:100224000001031C0130A0022829F80775080318EF
:10023400750FF90776080318760FFA07770803187D
:10024400770FFB07000103180130A007F10DFC0B29
:10025400FC28700DF80DF90DFA0DFB0DA00D7408B6
:10026400711C4629F8027508031C750FF9027608FB
:10027400031C760FFA027708031C770FFB020001B8
:10028400031C0130A0025729F80775080318750FDD
:10029400F90776080318760FFA0777080318770F1B
:1002A400FB07000103180130A007F00D0730FC0024
:1002B400700DF80DF90DFA0DFB0DA00D7408701CEE
:1002C4007529F8027508031C750FF9027608031CDA
:1002D400760FFA027708031C770FFB020001031C58
:1002E4000130A0028629F80775080318750FF9076D
:1002F40076080318760FFA0777080318770FFB07B9
:10030400000103180130A007F00DFC0B5A297018E6
:1003140099297408F80775080318750FF907760802
:100324000318760FFA0777080318770FFB070800FE
:1003340083160313A801AA01AB011030AC000430EA
:100344002B020318CF29F030831288008030F0008C
:100354007008083E840083162C09F00070088000A1
:10036400032003200F3083120805F0007008831661
:10037400A90070080319C9292A08A8002908031923
:10038400C729A90CA913A80AC0290430AB00AC0DD5
:100394002C100430AA07AB0AA1292808F000080091
:1003A40083160313A81BD92983128612DB2983120F
:1003B40086168316281BE12983120612E329831269
:1003C40006168316A81AE92983128611EB298312CB
:1003D40086158316281AF12983120611F32983122C
:1003E40006155118F7290614F82906108614032057
:1003F40086108316A819012A83128612032A8312EF
:10040400861683162819092A831206120B2A8312C8
:1004140006168316A818112A83128611132A83122A
:10042400861583162818192A831206111B2A83128B
:10043400061551181F2A0614202A061086140320B4
:0E0444008610511C272A0620282A13200800A3
:0E0452008312031342088A004108820008004A
:1004600083120313511083162008A800D2215114BF
:02047000080082
:1004720083160313A501A60100302602031D432A99
:100482000A30250203184E2A25082407840020304A
:100492008000A50A0319A60A3D2A2508240784001C
:1004A20080010130A502031CA60325082407A7002A
:1004B2000A30F400F501F601F7012008F0002108E6
:1004C200F1002208F2002308F30022207808F0004D
:1004D2007908F1007A08F2007B08F3003030F00767
:1004E200831627088400700880000A30F400F501A2
:1004F200F601F7012008F0002108F1002208F200BD
:100502002308F300222070088316A0007108A100BE
:100512007208A2007308A3000030F4007306031DE2
:100522009C2A74087206031D9C2A74087106031D16
:100532009C2A7008003A031D9F2AA42A0130A502B2
:08054200031CA603562A080061
:10054A009A217008A0000F3083120805F0000319E1
:0E055A00B02A1A20A82A83162008F0000800F4
:1005680083120313EA01EB016308EC006408ED0051
:100578006508EE006608EF0080306606F0008030FF
:100588007002031DD12A00306502031DD12A0030F4
:100598006402031DD12A003063020318F92A0130CE
:1005A800EA000030EB00F401F501F601F7016308F9
:1005B800F0006408F1006508F2006608F3007408AA
:1005C800EC007508ED007608EE007708EF0070087B
:1005D800EC027108031C710FED027208031C720F04
:1005E800EE027308031C730FEF026C088316A00059
:1005F80083126D088316A10083126E088316A20069
:1006080083126F088316A300831267088316A40059
:1006180039220B308312E8000030E9006908003CF9
:10062800031D182B6808003C0318332B680867075C
:10063800F20001306802F0000030031C013E69023C
:10064800F1007008670784000008F0007208840051
:10065800700880000130E802031CE903122B6708C8
:100668008400203080006A086B040319512BE801CC
:10067800E9016808670784000008203A031D482B31
:10068800E80A0319E90A3D2B0130E802031CE903D3
:0C0698006808670784002D30800008000F
:1006A400831203132230FC00F801F901FA01FB0163
:1006B400FC030319882B0310FB0CFA0CF90CF80C3F
:1006C400F30CF20CF10CF00C031C5A2BFC03031971
:1006D4007A2B7408F80775080318750FF90776085C
:1006E4000318760FFA0777080318770FFB075E2BBA
:1006F4007408F80775080318750FF90776080318C6
:0E070400760FFA0777080318770FFB07080037
:1007120083120313C001A52270088312C0001A308D
:10072200FC00F830FD00FD0B942BFC0B942B000019
:10073200400803198C2BCF2B01308316A800D2213D
:100742000F2C3030C0000F2C4530C0000F2C2B3046
:10075200C0000F2C3130C0000F2C3230C0000F2CE3
:100762003330C0000F2C2D30C0000F2C3430C000AD
:100772000F2C3530C0000F2C3630C0000F2C2A3021
:10078200C0000F2C3730C0000F2C3830C0000F2CA7
:100792003930C0000F2C2F30C0000F2C4008013A16
:1007A20003199D2B4008023A0319A22B4008033A71
:1007B2000319A52B4008043A0319A82B4008053A4F
:1007C2000319AB2B4008063A0319AE2B4008073A2F
:1007D2000319B12B4008083A0319B42B4008093A0F
:1007E2000319B72B40080A3A0319BA2B40080B3AEF
:1007F2000319BD2B40080C3A0319C02B40080D3ACF
:100802000319C32B40080E3A0319C62B40080F3AAE
:0E0812000319C92B4008103A0319CC2B08001B
:1008200083120313E40164086307840000080319BA
:10083000222C64086307840000088316A00030227D
:06084000E40A132C08007D
:1008460029228A110A128000840AC10A0319C20ADF
:08085600F003031D232C080030
:10085E0083160313861006100611861106128612D1
:10086E0083128610061086120612861106110620B5
:10087E0006200620861506158614032086100620EF
:10088E008614032086100620861403208610062068
:10089E000611861403208610062086140320861067
:1008AE0086118616861403208610062086120615DB
:1008BE008614032086100611861403208610062047
:1008CE008614032086100615861403208610062033
:1008DE000611861403208610861606168615061532
:0C08EE0086140320861006205114080018
:1008FA008F2C803083120313E300A22CC030E30054
:10090A00A22C9430E300A22CD430E300A22C803035
:10091A00E300A22C831203136308013A03197E2C05
:10092A006308023A0319832C6308033A0319862CD5
:10093A006308043A0319892C8C2C6403F0006308B9
:10094A00F0077008E30070088316A800D22151103E
:10095A00E60166086507840000080319BD2C6608CD
:10096A006507840000088316A0003022E60AAE2C30
:04097A00511408000C
:10097E00803083120313F0007008083E8400FF30AD
:04098E0080000800DD
:10099200523083120313A1006530A2007330A3000A
:1009A2007530A4006C30A5007430A6003D30A7005D
:1009B200A8014E30A9005530AA004D30AB003230AC
:1009C200AC003D30AD00AE014E30AF005530B0004E
:1009D2004D30B1003130B2003D30B300B4014F3080
:1009E200B5005030B6004530B7005230B800413043
:1009F200B9005430BA004930BB004F30BC004E3011
:100A0200BD003A30BE00BF01BF242F24013083163F
:100A1200A800D221C301C401C501C601C701C80192
:100A2200C901CA010130E3000130E4002F30E500C2
:100A32007D2489234008453A031D202D502D40086E
:100A42008316A00030220A30F000F101F201F30116
:100A52004308F4004408F5004508F6004608F7008C
:100A6200522330304002F400F501031CF5037408F0
:100A7200C3007508C4000030C41BFF30C500C600A7
:100A82007008C30771080318710FC40772080318AE
:100A9200720FC50773080318730FC6071A2D0230A9
:100AA200E3000130E4002930E5007D248923400879
:100AB200453A031D5D2D8D2D40088316A00030227E
:100AC2000A30F000F101F201F3014708F40048088E
:100AD200F5004908F6004A08F70052233030400278
:100AE200F400F501031CF5037408C7007508C8007B
:100AF2000030C81BFF30C900CA007008C707710860
:100B02000318710FC80772080318720FC907730818
:100B12000318730FCA07572D01308316A800D2217C
:100B22000130E3000130E4003530E5007D24892303
:100B3200042E4308DF004408E0004508E1004608AF
:100B4200E2004708DF0748080318480FE007490892
:100B52000318490FE1074A0803184A0FE207142E47
:100B62004708F0004808F1004908F2004A08F3007B
:100B72004308DF004408E0004508E1004608E200BF
:100B82007008DF027108031C710FE0027208031C77
:100B9200720FE1027308031C730FE202142E430862
:100BA200F0004408F1004508F2004608F300470847
:100BB200F4004808F5004908F6004A08F7005223F5
:100BC2007008DF007108E0007208E1007308E200BB
:100BD200142E4708F4004808F5004908F6004A08B0
:100BE200F7004308F0004408F1004508F200460807
:100BF200F30022207008DF007108E0007208E100B3
:100C02007308E200142E40082B3A03199A2D40086B
:100C12002D3A0319B12D40082A3A0319D02D400864
:100C22002F3A0319EA2D5F08E3006008E400610827
:100C3200E5006208E6005330E700B422D201D00199
:100C420050080B3C031C3B2E5008533E8400000806
:100C5200203A0319392E52084B3EF1005008533EF8
:100C620084000008F0007108840070088000D20A35
:100C7200D00A212E01308316A800D2210130E300D0
:100C82000130E4002130E5007D244B30E3001024E4
:100C92001F30FB007130FC001E30FD00FD0B4F2E9B
:100CA200FC0B4F2EFB0B4F2E000001308316A800C9
:060CB200D2210B2D5B2E88
:02400E004A2F37
:00000001FF
